{
  "contractName": "SimpleStorage",
  "abi": [
    {
      "constant": false,
      "inputs": [
        {
          "name": "_data",
          "type": "uint256"
        }
      ],
      "name": "updateData",
      "outputs": [],
      "payable": false,
      "stateMutability": "nonpayable",
      "type": "function"
    },
    {
      "constant": true,
      "inputs": [],
      "name": "readData",
      "outputs": [
        {
          "name": "",
          "type": "uint256"
        }
      ],
      "payable": false,
      "stateMutability": "view",
      "type": "function"
    }
  ],
  "bytecode": "0x608060405234801561001057600080fd5b5060bd8061001f6000396000f3fe6080604052348015600f57600080fd5b506004361060325760003560e01c806309e96008146037578063bef55ef3146062575b600080fd5b606060048036036020811015604b57600080fd5b8101908080359060200190929190505050607e565b005b60686088565b6040518082815260200191505060405180910390f35b8060008190555050565b6000805490509056fea165627a7a72305820059bc1c7c62c122bd557be37e6c9672bf5aec6e86d1999cfb82620b6dc6447520029",
  "source": "pragma solidity >=0.5.0 <0.6.0;\r\n\r\n\r\ncontract SimpleStorage{\r\n    uint data;\r\n\r\n    function updateData(uint _data) external {\r\n        data = _data;\r\n    }\r\n\r\n    function readData() external view returns(uint){\r\n        return data;\r\n    }\r\n}",
  "sourcePath": "C:\\Users\\zabala\\Documents\\zombie\\contracts\\simpleStorage.sol",
  "compiler": {
    "name": "solc",
    "version": "0.5.8+commit.23d335f2.Emscripten.clang"
  },
  "schemaVersion": "3.4.16",
  "updatedAt": "2024-03-13T15:43:41.590Z",
  "networkType": "ethereum",
  "devdoc": {
    "methods": {}
  },
  "userdoc": {
    "methods": {}
  }
}