{
  "contractName": "ZombieFeeding",
  "abi": [
    {
      "constant": true,
      "inputs": [
        {
          "name": "",
          "type": "uint256"
        }
      ],
      "name": "zombies",
      "outputs": [
        {
          "name": "name",
          "type": "string"
        },
        {
          "name": "dna",
          "type": "uint256"
        }
      ],
      "payable": false,
      "stateMutability": "view",
      "type": "function"
    },
    {
      "constant": true,
      "inputs": [
        {
          "name": "",
          "type": "uint256"
        }
      ],
      "name": "zombieToOwner",
      "outputs": [
        {
          "name": "",
          "type": "address"
        }
      ],
      "payable": false,
      "stateMutability": "view",
      "type": "function"
    },
    {
      "constant": false,
      "inputs": [
        {
          "name": "_name",
          "type": "string"
        }
      ],
      "name": "createRandomZombie",
      "outputs": [],
      "payable": false,
      "stateMutability": "nonpayable",
      "type": "function"
    },
    {
      "anonymous": false,
      "inputs": [
        {
          "indexed": false,
          "name": "zombieId",
          "type": "uint256"
        },
        {
          "indexed": false,
          "name": "name",
          "type": "string"
        },
        {
          "indexed": false,
          "name": "dna",
          "type": "uint256"
        }
      ],
      "name": "NewZombie",
      "type": "event"
    },
    {
      "constant": false,
      "inputs": [
        {
          "name": "_zombieId",
          "type": "uint256"
        },
        {
          "name": "_kittyId",
          "type": "uint256"
        }
      ],
      "name": "feedOnKitty",
      "outputs": [],
      "payable": false,
      "stateMutability": "nonpayable",
      "type": "function"
    }
  ],
  "bytecode": "0x60806040526010600055600054600a0a6001557306012c8cf97bead5deae237070f9587f8e7a266d600560006101000a81548173ffffffffffffffffffffffffffffffffffffffff021916908373ffffffffffffffffffffffffffffffffffffffff160217905550600560009054906101000a900473ffffffffffffffffffffffffffffffffffffffff16600660006101000a81548173ffffffffffffffffffffffffffffffffffffffff021916908373ffffffffffffffffffffffffffffffffffffffff1602179055503480156100d657600080fd5b5061098e806100e66000396000f3fe608060405234801561001057600080fd5b506004361061004c5760003560e01c806317a7f4cc146100515780632052465e14610089578063528b7b8f146101375780637bff0a01146101a5575b600080fd5b6100876004803603604081101561006757600080fd5b810190808035906020019092919080359060200190929190505050610260565b005b6100b56004803603602081101561009f57600080fd5b81019080803590602001909291905050506103eb565b6040518080602001838152602001828103825284818151815260200191508051906020019080838360005b838110156100fb5780820151818401526020810190506100e0565b50505050905090810190601f1680156101285780820380516001836020036101000a031916815260200191505b50935050505060405180910390f35b6101636004803603602081101561014d57600080fd5b81019080803590602001909291905050506104b4565b604051808273ffffffffffffffffffffffffffffffffffffffff1673ffffffffffffffffffffffffffffffffffffffff16815260200191505060405180910390f35b61025e600480360360208110156101bb57600080fd5b81019080803590602001906401000000008111156101d857600080fd5b8201836020820111156101ea57600080fd5b8035906020019184600183028401116401000000008311171561020c57600080fd5b91908080601f016020809104026020016040519081016040528093929190818152602001838380828437600081840152601f19601f8201169050808301925050505050505091929192905050506104e7565b005b6000600660009054906101000a900473ffffffffffffffffffffffffffffffffffffffff1673ffffffffffffffffffffffffffffffffffffffff1663e98b7f4d836040518263ffffffff1660e01b8152600401808281526020019150506101406040518083038186803b1580156102d657600080fd5b505afa1580156102ea573d6000803e3d6000fd5b505050506040513d61014081101561030157600080fd5b8101908080519060200190929190805190602001909291908051906020019092919080519060200190929190805190602001909291908051906020019092919080519060200190929190805190602001909291908051906020019092919080519060200190929190505050909192939495969798509091929394959697509091929394959650909192939495509091929394509091929350909192509091509050809150506103e683826040518060400160405280600581526020017f6b69747479000000000000000000000000000000000000000000000000000000815250610511565b505050565b600281815481106103f857fe5b9060005260206000209060020201600091509050806000018054600181600116156101000203166002900480601f0160208091040260200160405190810160405280929190818152602001828054600181600116156101000203166002900480156104a45780601f10610479576101008083540402835291602001916104a4565b820191906000526020600020905b81548152906001019060200180831161048757829003601f168201915b5050505050908060010154905082565b60036020528060005260406000206000915054906101000a900473ffffffffffffffffffffffffffffffffffffffff1681565b60006104f28261066b565b9050606481816104fe57fe5b068103905061050d82826106f9565b5050565b60006002848154811061052057fe5b90600052602060002090600202019050600154838161053b57fe5b06925060006002848360010154018161055057fe5b04905060405160200180807f6b69747479000000000000000000000000000000000000000000000000000000815250600501905060405160208183030381529060405280519060200120836040516020018082805190602001908083835b602083106105d157805182526020820191506020810190506020830392506105ae565b6001836020036101000a0380198251168184511680821785525050505050509050019150506040516020818303038152906040528051906020012014156106255760636064828161061e57fe5b0682030190505b6106646040518060400160405280600681526020017f4e6f4e616d650000000000000000000000000000000000000000000000000000815250826106f9565b5050505050565b600080826040516020018082805190602001908083835b602083106106a55780518252602082019150602081019050602083039250610682565b6001836020036101000a0380198251168184511680821785525050505050509050019150506040516020818303038152906040528051906020012060001c905060015481816106f057fe5b06915050919050565b60006001600260405180604001604052808681526020018581525090806001815401808255809150509060018203906000526020600020906002020160009091929091909150600082015181600001908051906020019061075b9291906108bd565b50602082015181600101555050039050336003600083815260200190815260200160002060006101000a81548173ffffffffffffffffffffffffffffffffffffffff021916908373ffffffffffffffffffffffffffffffffffffffff160217905550600460003373ffffffffffffffffffffffffffffffffffffffff1673ffffffffffffffffffffffffffffffffffffffff168152602001908152602001600020600081548092919060010191905055507f88f026aacbbecc90c18411df4b1185fd8d9be2470f1962f192bf84a27d0704b78184846040518084815260200180602001838152602001828103825284818151815260200191508051906020019080838360005b8381101561087c578082015181840152602081019050610861565b50505050905090810190601f1680156108a95780820380516001836020036101000a031916815260200191505b5094505050505060405180910390a1505050565b828054600181600116156101000203166002900490600052602060002090601f016020900481019282601f106108fe57805160ff191683800117855561092c565b8280016001018555821561092c579182015b8281111561092b578251825591602001919060010190610910565b5b509050610939919061093d565b5090565b61095f91905b8082111561095b576000816000905550600101610943565b5090565b9056fea165627a7a723058207a27599495e37cbcb762e8373cbd357e2ac309085cbc146a656304218963ade50029",
  "source": "pragma solidity >=0.5.0 <0.6.0;\r\nimport \"./zombiefactory.sol\";\r\n\r\ncontract KittyInterface {\r\n  function getKitty(uint256 _id) external view returns (\r\n    bool isGestating,\r\n    bool isReady,\r\n    uint256 cooldownIndex,\r\n    uint256 nextActionAt,\r\n    uint256 siringWithId,\r\n    uint256 birthTime,\r\n    uint256 matronId,\r\n    uint256 sireId,\r\n    uint256 generation,\r\n    uint256 genes\r\n  );\r\n}\r\n\r\ncontract ZombieFeeding is ZombieFactory {\r\n\r\n   address ckAddress = 0x06012c8cf97BEaD5deAe237070F9587f8E7A266d;\r\n   KittyInterface kittyContract = KittyInterface(ckAddress);\r\n\r\n  // Modify function definition here:\r\n   function _feedAndMultiply(uint _zombieId, uint _targetDna, string memory _species) private {\r\n   // require(msg.sender == zombieToOwner[_zombieId]);\r\n    Zombie storage myZombie = zombies[_zombieId];\r\n    _targetDna = _targetDna % dnaModulus;\r\n    uint newDna = (myZombie.dna + _targetDna) / 2;\r\n    \r\n    if (keccak256(abi.encodePacked(_species)) == keccak256(abi.encodePacked(\"kitty\"))) {\r\n      newDna = newDna - newDna % 100 + 99;\r\n    }\r\n    _createZombie(\"NoName\", newDna);\r\n  }\r\n\r\n  function feedOnKitty(uint _zombieId, uint _kittyId) public {\r\n    uint kittyDna;\r\n    (,,,,,,,,,kittyDna) = kittyContract.getKitty(_kittyId);\r\n    // And modify function call here:\r\n    _feedAndMultiply(_zombieId, kittyDna, \"kitty\");\r\n  }\r\n}",
  "sourcePath": "C:\\Users\\zabala\\Documents\\zombie\\contracts\\zombiefeeding.sol",
  "compiler": {
    "name": "solc",
    "version": "0.5.8+commit.23d335f2.Emscripten.clang"
  },
  "schemaVersion": "3.4.16",
  "updatedAt": "2024-03-12T03:10:57.443Z",
  "networkType": "ethereum",
  "devdoc": {
    "methods": {}
  },
  "userdoc": {
    "methods": {}
  }
}