{
  "contractName": "ZombieFeeding",
  "abi": [
    {
      "constant": true,
      "inputs": [
        {
          "name": "",
          "type": "string"
        }
      ],
      "name": "zombieNameExists",
      "outputs": [
        {
          "name": "",
          "type": "bool"
        }
      ],
      "payable": false,
      "stateMutability": "view",
      "type": "function"
    },
    {
      "constant": true,
      "inputs": [
        {
          "name": "",
          "type": "uint256"
        }
      ],
      "name": "zombies",
      "outputs": [
        {
          "name": "name",
          "type": "string"
        },
        {
          "name": "dna",
          "type": "uint256"
        }
      ],
      "payable": false,
      "stateMutability": "view",
      "type": "function"
    },
    {
      "constant": true,
      "inputs": [
        {
          "name": "",
          "type": "uint256"
        }
      ],
      "name": "zombieToOwner",
      "outputs": [
        {
          "name": "",
          "type": "address"
        }
      ],
      "payable": false,
      "stateMutability": "view",
      "type": "function"
    },
    {
      "constant": false,
      "inputs": [
        {
          "name": "_name",
          "type": "string"
        }
      ],
      "name": "createRandomZombie",
      "outputs": [],
      "payable": false,
      "stateMutability": "nonpayable",
      "type": "function"
    },
    {
      "anonymous": false,
      "inputs": [
        {
          "indexed": false,
          "name": "zombieId",
          "type": "uint256"
        },
        {
          "indexed": false,
          "name": "name",
          "type": "string"
        },
        {
          "indexed": false,
          "name": "dna",
          "type": "uint256"
        }
      ],
      "name": "NewZombie",
      "type": "event"
    },
    {
      "constant": false,
      "inputs": [
        {
          "name": "_zombieId",
          "type": "uint256"
        },
        {
          "name": "_targetDna",
          "type": "uint256"
        },
        {
          "name": "_species",
          "type": "string"
        }
      ],
      "name": "feedAndMultiply",
      "outputs": [],
      "payable": false,
      "stateMutability": "nonpayable",
      "type": "function"
    },
    {
      "constant": false,
      "inputs": [
        {
          "name": "_zombieId",
          "type": "uint256"
        },
        {
          "name": "_kittyId",
          "type": "uint256"
        }
      ],
      "name": "feedOnKitty",
      "outputs": [],
      "payable": false,
      "stateMutability": "nonpayable",
      "type": "function"
    }
  ],
  "bytecode": "0x60806040526010600055600054600a0a6001557306012c8cf97bead5deae237070f9587f8e7a266d600660006101000a81548173ffffffffffffffffffffffffffffffffffffffff021916908373ffffffffffffffffffffffffffffffffffffffff160217905550600660009054906101000a900473ffffffffffffffffffffffffffffffffffffffff16600760006101000a81548173ffffffffffffffffffffffffffffffffffffffff021916908373ffffffffffffffffffffffffffffffffffffffff1602179055503480156100d657600080fd5b50610d53806100e66000396000f3fe608060405234801561001057600080fd5b50600436106100625760003560e01c806313e7dfa81461006757806317a7f4cc1461013a5780632052465e14610172578063528b7b8f146102205780636b0bfc801461028e5780637bff0a011461035d575b600080fd5b6101206004803603602081101561007d57600080fd5b810190808035906020019064010000000081111561009a57600080fd5b8201836020820111156100ac57600080fd5b803590602001918460018302840111640100000000831117156100ce57600080fd5b91908080601f016020809104026020016040519081016040528093929190818152602001838380828437600081840152601f19601f820116905080830192505050505050509192919290505050610418565b604051808215151515815260200191505060405180910390f35b6101706004803603604081101561015057600080fd5b81019080803590602001909291908035906020019092919050505061044e565b005b61019e6004803603602081101561018857600080fd5b81019080803590602001909291905050506105d9565b6040518080602001838152602001828103825284818151815260200191508051906020019080838360005b838110156101e45780820151818401526020810190506101c9565b50505050905090810190601f1680156102115780820380516001836020036101000a031916815260200191505b50935050505060405180910390f35b61024c6004803603602081101561023657600080fd5b81019080803590602001909291905050506106a2565b604051808273ffffffffffffffffffffffffffffffffffffffff1673ffffffffffffffffffffffffffffffffffffffff16815260200191505060405180910390f35b61035b600480360360608110156102a457600080fd5b810190808035906020019092919080359060200190929190803590602001906401000000008111156102d557600080fd5b8201836020820111156102e757600080fd5b8035906020019184600183028401116401000000008311171561030957600080fd5b91908080601f016020809104026020016040519081016040528093929190818152602001838380828437600081840152601f19601f8201169050808301925050505050505091929192905050506106d5565b005b6104166004803603602081101561037357600080fd5b810190808035906020019064010000000081111561039057600080fd5b8201836020820111156103a257600080fd5b803590602001918460018302840111640100000000831117156103c457600080fd5b91908080601f016020809104026020016040519081016040528093929190818152602001838380828437600081840152601f19601f82011690508083019250505050505050919291929050505061089a565b005b6005818051602081018201805184825260208301602085012081835280955050505050506000915054906101000a900460ff1681565b6000600760009054906101000a900473ffffffffffffffffffffffffffffffffffffffff1673ffffffffffffffffffffffffffffffffffffffff1663e98b7f4d836040518263ffffffff1660e01b8152600401808281526020019150506101406040518083038186803b1580156104c457600080fd5b505afa1580156104d8573d6000803e3d6000fd5b505050506040513d6101408110156104ef57600080fd5b8101908080519060200190929190805190602001909291908051906020019092919080519060200190929190805190602001909291908051906020019092919080519060200190929190805190602001909291908051906020019092919080519060200190929190505050909192939495969798509091929394959697509091929394959650909192939495509091929394509091929350909192509091509050809150506105d483826040518060400160405280600581526020017f6b697474790000000000000000000000000000000000000000000000000000008152506106d5565b505050565b600281815481106105e657fe5b9060005260206000209060020201600091509050806000018054600181600116156101000203166002900480601f0160208091040260200160405190810160405280929190818152602001828054600181600116156101000203166002900480156106925780601f1061066757610100808354040283529160200191610692565b820191906000526020600020905b81548152906001019060200180831161067557829003601f168201915b5050505050908060010154905082565b60036020528060005260406000206000915054906101000a900473ffffffffffffffffffffffffffffffffffffffff1681565b6003600084815260200190815260200160002060009054906101000a900473ffffffffffffffffffffffffffffffffffffffff1673ffffffffffffffffffffffffffffffffffffffff163373ffffffffffffffffffffffffffffffffffffffff161461074057600080fd5b60006002848154811061074f57fe5b90600052602060002090600202019050600154838161076a57fe5b06925060006002848360010154018161077f57fe5b04905060405160200180807f6b69747479000000000000000000000000000000000000000000000000000000815250600501905060405160208183030381529060405280519060200120836040516020018082805190602001908083835b6020831061080057805182526020820191506020810190506020830392506107dd565b6001836020036101000a0380198251168184511680821785525050505050509050019150506040516020818303038152906040528051906020012014156108545760636064828161084d57fe5b0682030190505b6108936040518060400160405280600681526020017f4e6f4e616d65000000000000000000000000000000000000000000000000000081525082610a30565b5050505050565b6005816040518082805190602001908083835b602083106108d057805182526020820191506020810190506020830392506108ad565b6001836020036101000a038019825116818451168082178552505050505050905001915050908152602001604051809103902060009054906101000a900460ff1615610984576040517f08c379a000000000000000000000000000000000000000000000000000000000815260040180806020018281038252601b8152602001807f45737465206e6f6d62726520796120657374c3a120656e2075736f000000000081525060200191505060405180910390fd5b600061098f82610bf4565b90506064818161099b57fe5b06810390506109aa8282610a30565b60016005836040518082805190602001908083835b602083106109e257805182526020820191506020810190506020830392506109bf565b6001836020036101000a038019825116818451168082178552505050505050905001915050908152602001604051809103902060006101000a81548160ff0219169083151502179055505050565b600060016002604051806040016040528086815260200185815250908060018154018082558091505090600182039060005260206000209060020201600090919290919091506000820151816000019080519060200190610a92929190610c82565b50602082015181600101555050039050336003600083815260200190815260200160002060006101000a81548173ffffffffffffffffffffffffffffffffffffffff021916908373ffffffffffffffffffffffffffffffffffffffff160217905550600460003373ffffffffffffffffffffffffffffffffffffffff1673ffffffffffffffffffffffffffffffffffffffff168152602001908152602001600020600081548092919060010191905055507f88f026aacbbecc90c18411df4b1185fd8d9be2470f1962f192bf84a27d0704b78184846040518084815260200180602001838152602001828103825284818151815260200191508051906020019080838360005b83811015610bb3578082015181840152602081019050610b98565b50505050905090810190601f168015610be05780820380516001836020036101000a031916815260200191505b5094505050505060405180910390a1505050565b600080826040516020018082805190602001908083835b60208310610c2e5780518252602082019150602081019050602083039250610c0b565b6001836020036101000a0380198251168184511680821785525050505050509050019150506040516020818303038152906040528051906020012060001c90506001548181610c7957fe5b06915050919050565b828054600181600116156101000203166002900490600052602060002090601f016020900481019282601f10610cc357805160ff1916838001178555610cf1565b82800160010185558215610cf1579182015b82811115610cf0578251825591602001919060010190610cd5565b5b509050610cfe9190610d02565b5090565b610d2491905b80821115610d20576000816000905550600101610d08565b5090565b9056fea165627a7a72305820a30a320e6d076beb945121e1b6ca11aa34a31c4e0f0fcefba72ebb4ce4b427030029",
  "source": "pragma solidity >=0.5.0 <0.6.0;\r\nimport \"./zombiefactory.sol\";\r\ncontract KittyInterface {\r\n    function getKitty(\r\n        uint256 _id\r\n    )\r\n        external\r\n        view\r\n        returns (\r\n            bool isGestating,\r\n            bool isReady,\r\n            uint256 cooldownIndex,\r\n            uint256 nextActionAt,\r\n            uint256 siringWithId,\r\n            uint256 birthTime,\r\n            uint256 matronId,\r\n            uint256 sireId,\r\n            uint256 generation,\r\n            uint256 genes\r\n        );\r\n}\r\ncontract ZombieFeeding is ZombieFactory {\r\n    address ckAddress = 0x06012c8cf97BEaD5deAe237070F9587f8E7A266d;\r\n    KittyInterface kittyContract = KittyInterface(ckAddress);\r\n\r\n    // Modify function definition here:\r\n    function feedAndMultiply(\r\n        uint _zombieId,\r\n        uint _targetDna,\r\n        string memory _species\r\n    ) public {\r\n        require(msg.sender == zombieToOwner[_zombieId]);\r\n        Zombie storage myZombie = zombies[_zombieId];\r\n        _targetDna = _targetDna % dnaModulus;\r\n        uint newDna = (myZombie.dna + _targetDna) / 2;\r\n        if (\r\n            keccak256(abi.encodePacked(_species)) ==\r\n            keccak256(abi.encodePacked(\"kitty\"))\r\n        ) {\r\n            newDna = newDna - (newDna % 100) + 99;\r\n        }\r\n        _createZombie(\"NoName\", newDna);\r\n    }\r\n\r\n    function feedOnKitty(uint _zombieId, uint _kittyId) public {\r\n        uint kittyDna;\r\n        (, , , , , , , , , kittyDna) = kittyContract.getKitty(_kittyId);\r\n        // And modify function call here:\r\n        feedAndMultiply(_zombieId, kittyDna, \"kitty\");\r\n    }\r\n}\r\n",
  "sourcePath": "C:\\Users\\zabala\\Documents\\zombie\\contracts\\zombiefeeding.sol",
  "compiler": {
    "name": "solc",
    "version": "0.5.8+commit.23d335f2.Emscripten.clang"
  },
  "schemaVersion": "3.4.16",
  "updatedAt": "2024-03-12T12:50:43.884Z",
  "devdoc": {
    "methods": {}
  },
  "userdoc": {
    "methods": {}
  }
}