{
  "contractName": "ZombieFactory",
  "abi": [
    {
      "constant": true,
      "inputs": [
        {
          "name": "",
          "type": "uint256"
        }
      ],
      "name": "zombies",
      "outputs": [
        {
          "name": "name",
          "type": "string"
        },
        {
          "name": "dna",
          "type": "uint256"
        }
      ],
      "payable": false,
      "stateMutability": "view",
      "type": "function"
    },
    {
      "constant": true,
      "inputs": [
        {
          "name": "",
          "type": "uint256"
        }
      ],
      "name": "zombieToOwner",
      "outputs": [
        {
          "name": "",
          "type": "address"
        }
      ],
      "payable": false,
      "stateMutability": "view",
      "type": "function"
    },
    {
      "anonymous": false,
      "inputs": [
        {
          "indexed": false,
          "name": "zombieId",
          "type": "uint256"
        },
        {
          "indexed": false,
          "name": "name",
          "type": "string"
        },
        {
          "indexed": false,
          "name": "dna",
          "type": "uint256"
        }
      ],
      "name": "NewZombie",
      "type": "event"
    },
    {
      "constant": false,
      "inputs": [
        {
          "name": "_name",
          "type": "string"
        }
      ],
      "name": "createRandomZombie",
      "outputs": [],
      "payable": false,
      "stateMutability": "nonpayable",
      "type": "function"
    }
  ],
  "bytecode": "0x60806040526010600055600054600a0a60015534801561001e57600080fd5b506106668061002e6000396000f3fe608060405234801561001057600080fd5b50600436106100415760003560e01c80632052465e14610046578063528b7b8f146100f45780637bff0a0114610162575b600080fd5b6100726004803603602081101561005c57600080fd5b810190808035906020019092919050505061021d565b6040518080602001838152602001828103825284818151815260200191508051906020019080838360005b838110156100b857808201518184015260208101905061009d565b50505050905090810190601f1680156100e55780820380516001836020036101000a031916815260200191505b50935050505060405180910390f35b6101206004803603602081101561010a57600080fd5b81019080803590602001909291905050506102e6565b604051808273ffffffffffffffffffffffffffffffffffffffff1673ffffffffffffffffffffffffffffffffffffffff16815260200191505060405180910390f35b61021b6004803603602081101561017857600080fd5b810190808035906020019064010000000081111561019557600080fd5b8201836020820111156101a757600080fd5b803590602001918460018302840111640100000000831117156101c957600080fd5b91908080601f016020809104026020016040519081016040528093929190818152602001838380828437600081840152601f19601f820116905080830192505050505050509192919290505050610319565b005b6002818154811061022a57fe5b9060005260206000209060020201600091509050806000018054600181600116156101000203166002900480601f0160208091040260200160405190810160405280929190818152602001828054600181600116156101000203166002900480156102d65780601f106102ab576101008083540402835291602001916102d6565b820191906000526020600020905b8154815290600101906020018083116102b957829003601f168201915b5050505050908060010154905082565b60036020528060005260406000206000915054906101000a900473ffffffffffffffffffffffffffffffffffffffff1681565b600061032482610343565b90506064818161033057fe5b068103905061033f82826103d1565b5050565b600080826040516020018082805190602001908083835b6020831061037d578051825260208201915060208101905060208303925061035a565b6001836020036101000a0380198251168184511680821785525050505050509050019150506040516020818303038152906040528051906020012060001c905060015481816103c857fe5b06915050919050565b600060016002604051806040016040528086815260200185815250908060018154018082558091505090600182039060005260206000209060020201600090919290919091506000820151816000019080519060200190610433929190610595565b50602082015181600101555050039050336003600083815260200190815260200160002060006101000a81548173ffffffffffffffffffffffffffffffffffffffff021916908373ffffffffffffffffffffffffffffffffffffffff160217905550600460003373ffffffffffffffffffffffffffffffffffffffff1673ffffffffffffffffffffffffffffffffffffffff168152602001908152602001600020600081548092919060010191905055507f88f026aacbbecc90c18411df4b1185fd8d9be2470f1962f192bf84a27d0704b78184846040518084815260200180602001838152602001828103825284818151815260200191508051906020019080838360005b83811015610554578082015181840152602081019050610539565b50505050905090810190601f1680156105815780820380516001836020036101000a031916815260200191505b5094505050505060405180910390a1505050565b828054600181600116156101000203166002900490600052602060002090601f016020900481019282601f106105d657805160ff1916838001178555610604565b82800160010185558215610604579182015b828111156106035782518255916020019190600101906105e8565b5b5090506106119190610615565b5090565b61063791905b8082111561063357600081600090555060010161061b565b5090565b9056fea165627a7a7230582003a02b70617439ac6d29319993584704c77bd69b8ea0d5a3ff5610442e4306c80029",
  "source": "pragma solidity >=0.5.0 <0.6.0;\r\n\r\ncontract ZombieFactory {\r\n\r\n    event NewZombie(uint zombieId, string name, uint dna);\r\n\r\n    uint dnaDigits = 16;\r\n    uint dnaModulus = 10 ** dnaDigits;\r\n\r\n    struct Zombie {\r\n        string name;\r\n        uint dna;\r\n    }\r\n\r\n    Zombie[] public zombies;\r\n\r\n    mapping (uint => address) public zombieToOwner;\r\n    mapping (address => uint) ownerZombieCount;\r\n\r\n    function _createZombie(string memory _name, uint _dna) internal {\r\n        uint id = zombies.push(Zombie(_name, _dna)) - 1;\r\n        zombieToOwner[id] = msg.sender;\r\n        ownerZombieCount[msg.sender]++;\r\n        emit NewZombie(id, _name, _dna);\r\n    }\r\n\r\n    function _generateRandomDna(string memory _str) private view returns (uint) {\r\n        uint rand = uint(keccak256(abi.encodePacked(_str)));\r\n        return rand % dnaModulus;\r\n    }\r\n\r\n    function createRandomZombie(string memory _name) public {\r\n        //require(ownerZombieCount[msg.sender] == 0);\r\n        uint randDna = _generateRandomDna(_name);\r\n        randDna = randDna - randDna % 100;\r\n        _createZombie(_name, randDna);\r\n    }\r\n}",
  "sourcePath": "C:\\Users\\zabala\\Documents\\zombie\\contracts\\zombiefactory.sol",
  "compiler": {
    "name": "solc",
    "version": "0.5.8+commit.23d335f2.Emscripten.clang"
  },
  "schemaVersion": "3.4.16",
  "updatedAt": "2024-03-12T03:10:57.446Z",
  "networkType": "ethereum",
  "devdoc": {
    "methods": {}
  },
  "userdoc": {
    "methods": {}
  }
}