{
  "contractName": "ZombieFeeding",
  "abi": [
    {
      "constant": true,
      "inputs": [
        {
          "name": "",
          "type": "string"
        }
      ],
      "name": "zombieNameExists",
      "outputs": [
        {
          "name": "",
          "type": "bool"
        }
      ],
      "payable": false,
      "stateMutability": "view",
      "type": "function"
    },
    {
      "constant": true,
      "inputs": [
        {
          "name": "",
          "type": "uint256"
        }
      ],
      "name": "zombies",
      "outputs": [
        {
          "name": "name",
          "type": "string"
        },
        {
          "name": "dna",
          "type": "uint256"
        }
      ],
      "payable": false,
      "stateMutability": "view",
      "type": "function"
    },
    {
      "constant": true,
      "inputs": [
        {
          "name": "",
          "type": "uint256"
        }
      ],
      "name": "zombieToOwner",
      "outputs": [
        {
          "name": "",
          "type": "address"
        }
      ],
      "payable": false,
      "stateMutability": "view",
      "type": "function"
    },
    {
      "constant": false,
      "inputs": [
        {
          "name": "_name",
          "type": "string"
        }
      ],
      "name": "createRandomZombie",
      "outputs": [],
      "payable": false,
      "stateMutability": "nonpayable",
      "type": "function"
    },
    {
      "constant": true,
      "inputs": [
        {
          "name": "_name",
          "type": "string"
        }
      ],
      "name": "checkIfZombieNameExists",
      "outputs": [
        {
          "name": "",
          "type": "bool"
        }
      ],
      "payable": false,
      "stateMutability": "view",
      "type": "function"
    },
    {
      "anonymous": false,
      "inputs": [
        {
          "indexed": false,
          "name": "zombieId",
          "type": "uint256"
        },
        {
          "indexed": false,
          "name": "name",
          "type": "string"
        },
        {
          "indexed": false,
          "name": "dna",
          "type": "uint256"
        }
      ],
      "name": "NewZombie",
      "type": "event"
    },
    {
      "constant": false,
      "inputs": [
        {
          "name": "_zombieId",
          "type": "uint256"
        },
        {
          "name": "_targetDna",
          "type": "uint256"
        },
        {
          "name": "_species",
          "type": "string"
        }
      ],
      "name": "feedAndMultiply",
      "outputs": [],
      "payable": false,
      "stateMutability": "nonpayable",
      "type": "function"
    },
    {
      "constant": false,
      "inputs": [
        {
          "name": "_zombieId",
          "type": "uint256"
        },
        {
          "name": "_kittyId",
          "type": "uint256"
        }
      ],
      "name": "feedOnKitty",
      "outputs": [],
      "payable": false,
      "stateMutability": "nonpayable",
      "type": "function"
    }
  ],
  "bytecode": "0x60806040526010600055600054600a0a6001557306012c8cf97bead5deae237070f9587f8e7a266d600660006101000a81548173ffffffffffffffffffffffffffffffffffffffff021916908373ffffffffffffffffffffffffffffffffffffffff160217905550600660009054906101000a900473ffffffffffffffffffffffffffffffffffffffff16600760006101000a81548173ffffffffffffffffffffffffffffffffffffffff021916908373ffffffffffffffffffffffffffffffffffffffff1602179055503480156100d657600080fd5b50610ec1806100e66000396000f3fe608060405234801561001057600080fd5b506004361061007d5760003560e01c8063528b7b8f1161005b578063528b7b8f1461023b5780636b0bfc80146102a95780637bff0a0114610378578063e0f22acb146104335761007d565b806313e7dfa81461008257806317a7f4cc146101555780632052465e1461018d575b600080fd5b61013b6004803603602081101561009857600080fd5b81019080803590602001906401000000008111156100b557600080fd5b8201836020820111156100c757600080fd5b803590602001918460018302840111640100000000831117156100e957600080fd5b91908080601f016020809104026020016040519081016040528093929190818152602001838380828437600081840152601f19601f820116905080830192505050505050509192919290505050610506565b604051808215151515815260200191505060405180910390f35b61018b6004803603604081101561016b57600080fd5b81019080803590602001909291908035906020019092919050505061053c565b005b6101b9600480360360208110156101a357600080fd5b81019080803590602001909291905050506106c7565b6040518080602001838152602001828103825284818151815260200191508051906020019080838360005b838110156101ff5780820151818401526020810190506101e4565b50505050905090810190601f16801561022c5780820380516001836020036101000a031916815260200191505b50935050505060405180910390f35b6102676004803603602081101561025157600080fd5b8101908080359060200190929190505050610790565b604051808273ffffffffffffffffffffffffffffffffffffffff1673ffffffffffffffffffffffffffffffffffffffff16815260200191505060405180910390f35b610376600480360360608110156102bf57600080fd5b810190808035906020019092919080359060200190929190803590602001906401000000008111156102f057600080fd5b82018360208201111561030257600080fd5b8035906020019184600183028401116401000000008311171561032457600080fd5b91908080601f016020809104026020016040519081016040528093929190818152602001838380828437600081840152601f19601f8201169050808301925050505050505091929192905050506107c3565b005b6104316004803603602081101561038e57600080fd5b81019080803590602001906401000000008111156103ab57600080fd5b8201836020820111156103bd57600080fd5b803590602001918460018302840111640100000000831117156103df57600080fd5b91908080601f016020809104026020016040519081016040528093929190818152602001838380828437600081840152601f19601f820116905080830192505050505050509192919290505050610988565b005b6104ec6004803603602081101561044957600080fd5b810190808035906020019064010000000081111561046657600080fd5b82018360208201111561047857600080fd5b8035906020019184600183028401116401000000008311171561049a57600080fd5b91908080601f016020809104026020016040519081016040528093929190818152602001838380828437600081840152601f19601f820116905080830192505050505050509192919290505050610b1e565b604051808215151515815260200191505060405180910390f35b6005818051602081018201805184825260208301602085012081835280955050505050506000915054906101000a900460ff1681565b6000600760009054906101000a900473ffffffffffffffffffffffffffffffffffffffff1673ffffffffffffffffffffffffffffffffffffffff1663e98b7f4d836040518263ffffffff1660e01b8152600401808281526020019150506101406040518083038186803b1580156105b257600080fd5b505afa1580156105c6573d6000803e3d6000fd5b505050506040513d6101408110156105dd57600080fd5b8101908080519060200190929190805190602001909291908051906020019092919080519060200190929190805190602001909291908051906020019092919080519060200190929190805190602001909291908051906020019092919080519060200190929190505050909192939495969798509091929394959697509091929394959650909192939495509091929394509091929350909192509091509050809150506106c283826040518060400160405280600581526020017f6b697474790000000000000000000000000000000000000000000000000000008152506107c3565b505050565b600281815481106106d457fe5b9060005260206000209060020201600091509050806000018054600181600116156101000203166002900480601f0160208091040260200160405190810160405280929190818152602001828054600181600116156101000203166002900480156107805780601f1061075557610100808354040283529160200191610780565b820191906000526020600020905b81548152906001019060200180831161076357829003601f168201915b5050505050908060010154905082565b60036020528060005260406000206000915054906101000a900473ffffffffffffffffffffffffffffffffffffffff1681565b6003600084815260200190815260200160002060009054906101000a900473ffffffffffffffffffffffffffffffffffffffff1673ffffffffffffffffffffffffffffffffffffffff163373ffffffffffffffffffffffffffffffffffffffff161461082e57600080fd5b60006002848154811061083d57fe5b90600052602060002090600202019050600154838161085857fe5b06925060006002848360010154018161086d57fe5b04905060405160200180807f6b69747479000000000000000000000000000000000000000000000000000000815250600501905060405160208183030381529060405280519060200120836040516020018082805190602001908083835b602083106108ee57805182526020820191506020810190506020830392506108cb565b6001836020036101000a0380198251168184511680821785525050505050509050019150506040516020818303038152906040528051906020012014156109425760636064828161093b57fe5b0682030190505b6109816040518060400160405280600681526020017f4e6f4e616d65000000000000000000000000000000000000000000000000000081525082610b9e565b5050505050565b6005816040518082805190602001908083835b602083106109be578051825260208201915060208101905060208303925061099b565b6001836020036101000a038019825116818451168082178552505050505050905001915050908152602001604051809103902060009054906101000a900460ff1615610a72576040517f08c379a000000000000000000000000000000000000000000000000000000000815260040180806020018281038252601b8152602001807f45737465206e6f6d62726520796120657374c3a120656e2075736f000000000081525060200191505060405180910390fd5b6000610a7d82610d62565b905060648181610a8957fe5b0681039050610a988282610b9e565b60016005836040518082805190602001908083835b60208310610ad05780518252602082019150602081019050602083039250610aad565b6001836020036101000a038019825116818451168082178552505050505050905001915050908152602001604051809103902060006101000a81548160ff0219169083151502179055505050565b60006005826040518082805190602001908083835b60208310610b565780518252602082019150602081019050602083039250610b33565b6001836020036101000a038019825116818451168082178552505050505050905001915050908152602001604051809103902060009054906101000a900460ff169050919050565b600060016002604051806040016040528086815260200185815250908060018154018082558091505090600182039060005260206000209060020201600090919290919091506000820151816000019080519060200190610c00929190610df0565b50602082015181600101555050039050336003600083815260200190815260200160002060006101000a81548173ffffffffffffffffffffffffffffffffffffffff021916908373ffffffffffffffffffffffffffffffffffffffff160217905550600460003373ffffffffffffffffffffffffffffffffffffffff1673ffffffffffffffffffffffffffffffffffffffff168152602001908152602001600020600081548092919060010191905055507f88f026aacbbecc90c18411df4b1185fd8d9be2470f1962f192bf84a27d0704b78184846040518084815260200180602001838152602001828103825284818151815260200191508051906020019080838360005b83811015610d21578082015181840152602081019050610d06565b50505050905090810190601f168015610d4e5780820380516001836020036101000a031916815260200191505b5094505050505060405180910390a1505050565b600080826040516020018082805190602001908083835b60208310610d9c5780518252602082019150602081019050602083039250610d79565b6001836020036101000a0380198251168184511680821785525050505050509050019150506040516020818303038152906040528051906020012060001c90506001548181610de757fe5b06915050919050565b828054600181600116156101000203166002900490600052602060002090601f016020900481019282601f10610e3157805160ff1916838001178555610e5f565b82800160010185558215610e5f579182015b82811115610e5e578251825591602001919060010190610e43565b5b509050610e6c9190610e70565b5090565b610e9291905b80821115610e8e576000816000905550600101610e76565b5090565b9056fea165627a7a7230582091e41200dc6e1e4279b3cec40fe8ac598295dd5f03faae7989bdb058591cc58f0029",
  "source": "pragma solidity >=0.5.0 <0.6.0;\r\nimport \"./zombiefactory.sol\";\r\ncontract KittyInterface {\r\n    function getKitty(\r\n        uint256 _id\r\n    )\r\n        external\r\n        view\r\n        returns (\r\n            bool isGestating,\r\n            bool isReady,\r\n            uint256 cooldownIndex,\r\n            uint256 nextActionAt,\r\n            uint256 siringWithId,\r\n            uint256 birthTime,\r\n            uint256 matronId,\r\n            uint256 sireId,\r\n            uint256 generation,\r\n            uint256 genes\r\n        );\r\n}\r\ncontract ZombieFeeding is ZombieFactory {\r\n    address ckAddress = 0x06012c8cf97BEaD5deAe237070F9587f8E7A266d;\r\n    KittyInterface kittyContract = KittyInterface(ckAddress);\r\n\r\n    // Modify function definition here:\r\n    function feedAndMultiply(\r\n        uint _zombieId,\r\n        uint _targetDna,\r\n        string memory _species\r\n    ) public {\r\n        require(msg.sender == zombieToOwner[_zombieId]);\r\n        Zombie storage myZombie = zombies[_zombieId];\r\n        _targetDna = _targetDna % dnaModulus;\r\n        uint newDna = (myZombie.dna + _targetDna) / 2;\r\n        if (\r\n            keccak256(abi.encodePacked(_species)) ==\r\n            keccak256(abi.encodePacked(\"kitty\"))\r\n        ) {\r\n            newDna = newDna - (newDna % 100) + 99;\r\n        }\r\n        _createZombie(\"NoName\", newDna);\r\n    }\r\n\r\n    function feedOnKitty(uint _zombieId, uint _kittyId) public {\r\n        uint kittyDna;\r\n        (, , , , , , , , , kittyDna) = kittyContract.getKitty(_kittyId);\r\n        // And modify function call here:\r\n        feedAndMultiply(_zombieId, kittyDna, \"kitty\");\r\n    }\r\n}\r\n",
  "sourcePath": "C:\\Users\\zabala\\Documents\\zombie\\contracts\\zombiefeeding.sol",
  "compiler": {
    "name": "solc",
    "version": "0.5.8+commit.23d335f2.Emscripten.clang"
  },
  "schemaVersion": "3.4.16",
  "updatedAt": "2024-03-13T03:10:06.348Z",
  "devdoc": {
    "methods": {}
  },
  "userdoc": {
    "methods": {}
  }
}